:1000000012C024C023C022C021C020C01FC01EC0F7
:100010001DC01CC01BC01AC019C018C017C016C014
:1000200015C014C013C011241FBECFE5D4E0DEBF3D
:10003000CDBF10E0A0E6B0E0EEE0F1E002C0059038
:100040000D92A436B107D9F72BD05FC0D9CF0F934B
:100050001F93CF93DF93CDB7DEB70DB71EB7409197
:10006000610050E08DB79EB7841B950B0FB6F894D6
:100070009EBF0FBE8DBF2DB73EB72F5F3F4F609124
:10008000620070E08091600090E021D00FB6F8949B
:100090001EBF0FBE0DBFDF91CF911F910F9108952D
:1000A000D6DF80E090E0089584EA86BF06B607FEBA
:1000B000FDCF089584E986BF06B604FEFDCF0895FE
:1000C00083B984E886BF06B607FEFDCF0895FF9288
:1000D0000F931F93CF93DF93D82FC62F142FF22E99
:1000E000032FE2DF8D2FECDF8C2FEADF112331F0BD
:1000F000CF2DD02F8991E4DF1150E1F7DBDFDF91C5
:0E010000CF911F910F91FF900895F894FFCFBB
:04010E0020020000CB
:00000001FF
