
i2c_app.elf:     file format elf32-avr

Sections:
Idx Name          Size      VMA       LMA       File off  Algn
  0 .text         0000010e  00000000  00000000  00000074  2**1
                  CONTENTS, ALLOC, LOAD, READONLY, CODE
  1 .data         00000004  00800060  0000010e  00000182  2**0
                  CONTENTS, ALLOC, LOAD, DATA
  2 .comment      00000030  00000000  00000000  00000186  2**0
                  CONTENTS, READONLY
  3 .debug_aranges 00000090  00000000  00000000  000001b6  2**0
                  CONTENTS, READONLY, DEBUGGING
  4 .debug_info   00000496  00000000  00000000  00000246  2**0
                  CONTENTS, READONLY, DEBUGGING
  5 .debug_abbrev 0000027e  00000000  00000000  000006dc  2**0
                  CONTENTS, READONLY, DEBUGGING
  6 .debug_line   000002a8  00000000  00000000  0000095a  2**0
                  CONTENTS, READONLY, DEBUGGING
  7 .debug_frame  00000120  00000000  00000000  00000c04  2**2
                  CONTENTS, READONLY, DEBUGGING
  8 .debug_str    00000200  00000000  00000000  00000d24  2**0
                  CONTENTS, READONLY, DEBUGGING
  9 .debug_loc    000003bd  00000000  00000000  00000f24  2**0
                  CONTENTS, READONLY, DEBUGGING
 10 .debug_ranges 00000060  00000000  00000000  000012e1  2**0
                  CONTENTS, READONLY, DEBUGGING

Disassembly of section .text:

00000000 <__vectors>:
   0:	12 c0       	rjmp	.+36     	; 0x26 <__ctors_end>
   2:	24 c0       	rjmp	.+72     	; 0x4c <__bad_interrupt>
   4:	23 c0       	rjmp	.+70     	; 0x4c <__bad_interrupt>
   6:	22 c0       	rjmp	.+68     	; 0x4c <__bad_interrupt>
   8:	21 c0       	rjmp	.+66     	; 0x4c <__bad_interrupt>
   a:	20 c0       	rjmp	.+64     	; 0x4c <__bad_interrupt>
   c:	1f c0       	rjmp	.+62     	; 0x4c <__bad_interrupt>
   e:	1e c0       	rjmp	.+60     	; 0x4c <__bad_interrupt>
  10:	1d c0       	rjmp	.+58     	; 0x4c <__bad_interrupt>
  12:	1c c0       	rjmp	.+56     	; 0x4c <__bad_interrupt>
  14:	1b c0       	rjmp	.+54     	; 0x4c <__bad_interrupt>
  16:	1a c0       	rjmp	.+52     	; 0x4c <__bad_interrupt>
  18:	19 c0       	rjmp	.+50     	; 0x4c <__bad_interrupt>
  1a:	18 c0       	rjmp	.+48     	; 0x4c <__bad_interrupt>
  1c:	17 c0       	rjmp	.+46     	; 0x4c <__bad_interrupt>
  1e:	16 c0       	rjmp	.+44     	; 0x4c <__bad_interrupt>
  20:	15 c0       	rjmp	.+42     	; 0x4c <__bad_interrupt>
  22:	14 c0       	rjmp	.+40     	; 0x4c <__bad_interrupt>
  24:	13 c0       	rjmp	.+38     	; 0x4c <__bad_interrupt>

00000026 <__ctors_end>:
  26:	11 24       	eor	r1, r1
  28:	1f be       	out	0x3f, r1	; 63
  2a:	cf e5       	ldi	r28, 0x5F	; 95
  2c:	d4 e0       	ldi	r29, 0x04	; 4
  2e:	de bf       	out	0x3e, r29	; 62
  30:	cd bf       	out	0x3d, r28	; 61

00000032 <__do_copy_data>:
  32:	10 e0       	ldi	r17, 0x00	; 0
  34:	a0 e6       	ldi	r26, 0x60	; 96
  36:	b0 e0       	ldi	r27, 0x00	; 0
  38:	ee e0       	ldi	r30, 0x0E	; 14
  3a:	f1 e0       	ldi	r31, 0x01	; 1
  3c:	02 c0       	rjmp	.+4      	; 0x42 <__SREG__+0x3>
  3e:	05 90       	lpm	r0, Z+
  40:	0d 92       	st	X+, r0
  42:	a4 36       	cpi	r26, 0x64	; 100
  44:	b1 07       	cpc	r27, r17
  46:	d9 f7       	brne	.-10     	; 0x3e <__SP_H__>
  48:	2b d0       	rcall	.+86     	; 0xa0 <main>
  4a:	5f c0       	rjmp	.+190    	; 0x10a <_exit>

0000004c <__bad_interrupt>:
  4c:	d9 cf       	rjmp	.-78     	; 0x0 <__vectors>

0000004e <master_role>:
 * Created: 11/15/2014 12:10:30 AM
 *  Author: Chris
 */ 
#include "master.h"

void master_role(void){
  4e:	0f 93       	push	r16
  50:	1f 93       	push	r17
  52:	cf 93       	push	r28
  54:	df 93       	push	r29
  56:	cd b7       	in	r28, 0x3d	; 61
  58:	de b7       	in	r29, 0x3e	; 62

	uint8_t data[LENGTH]; 
	//tu trzeba wywolac funkcje ktora zaladuje dane do zmienne data
	TWI_write_buf(DEFAULT_ATMEGA16_ADDR,RAM_ADDR,LENGTH,data);
	
  5a:	0d b7       	in	r16, 0x3d	; 61
  5c:	1e b7       	in	r17, 0x3e	; 62
 */ 
#include "master.h"

void master_role(void){

	uint8_t data[LENGTH]; 
  5e:	40 91 61 00 	lds	r20, 0x0061
  62:	50 e0       	ldi	r21, 0x00	; 0
  64:	8d b7       	in	r24, 0x3d	; 61
  66:	9e b7       	in	r25, 0x3e	; 62
  68:	84 1b       	sub	r24, r20
  6a:	95 0b       	sbc	r25, r21
  6c:	0f b6       	in	r0, 0x3f	; 63
  6e:	f8 94       	cli
  70:	9e bf       	out	0x3e, r25	; 62
  72:	0f be       	out	0x3f, r0	; 63
  74:	8d bf       	out	0x3d, r24	; 61
  76:	2d b7       	in	r18, 0x3d	; 61
  78:	3e b7       	in	r19, 0x3e	; 62
  7a:	2f 5f       	subi	r18, 0xFF	; 255
  7c:	3f 4f       	sbci	r19, 0xFF	; 255
	//tu trzeba wywolac funkcje ktora zaladuje dane do zmienne data
	TWI_write_buf(DEFAULT_ATMEGA16_ADDR,RAM_ADDR,LENGTH,data);
  7e:	60 91 62 00 	lds	r22, 0x0062
  82:	70 e0       	ldi	r23, 0x00	; 0
  84:	80 91 60 00 	lds	r24, 0x0060
  88:	90 e0       	ldi	r25, 0x00	; 0
  8a:	21 d0       	rcall	.+66     	; 0xce <TWI_write_buf>
	
  8c:	0f b6       	in	r0, 0x3f	; 63
  8e:	f8 94       	cli
  90:	1e bf       	out	0x3e, r17	; 62
  92:	0f be       	out	0x3f, r0	; 63
  94:	0d bf       	out	0x3d, r16	; 61
  96:	df 91       	pop	r29
  98:	cf 91       	pop	r28
  9a:	1f 91       	pop	r17
  9c:	0f 91       	pop	r16
  9e:	08 95       	ret

000000a0 <main>:


int main(void){
	
	#ifdef MASTER
		master_role();
  a0:	d6 df       	rcall	.-84     	; 0x4e <master_role>
	#else	
		slave_role();
	#endif
	
	return 0;
}
  a2:	80 e0       	ldi	r24, 0x00	; 0
  a4:	90 e0       	ldi	r25, 0x00	; 0
  a6:	08 95       	ret

000000a8 <TWI_start>:

	TWBR = bitrate_div;
}

void TWI_start(void) {
	TWCR = (1<<TWINT)|(1<<TWEN)|(1<<TWSTA);
  a8:	84 ea       	ldi	r24, 0xA4	; 164
  aa:	86 bf       	out	0x36, r24	; 54
	while (!(TWCR&(1<<TWINT)));
  ac:	06 b6       	in	r0, 0x36	; 54
  ae:	07 fe       	sbrs	r0, 7
  b0:	fd cf       	rjmp	.-6      	; 0xac <TWI_start+0x4>
}
  b2:	08 95       	ret

000000b4 <TWI_stop>:

void TWI_stop(void) {
	TWCR = (1<<TWINT)|(1<<TWEN)|(1<<TWSTO);
  b4:	84 e9       	ldi	r24, 0x94	; 148
  b6:	86 bf       	out	0x36, r24	; 54
	while ( !(TWCR&(1<<TWSTO)));
  b8:	06 b6       	in	r0, 0x36	; 54
  ba:	04 fe       	sbrs	r0, 4
  bc:	fd cf       	rjmp	.-6      	; 0xb8 <TWI_stop+0x4>
}
  be:	08 95       	ret

000000c0 <TWI_write>:

void TWI_write(uint8_t bajt) {
	TWDR = bajt;
  c0:	83 b9       	out	0x03, r24	; 3
	TWCR = (1<<TWINT)|(1<<TWEN);
  c2:	84 e8       	ldi	r24, 0x84	; 132
  c4:	86 bf       	out	0x36, r24	; 54
	while ( !(TWCR&(1<<TWINT)));
  c6:	06 b6       	in	r0, 0x36	; 54
  c8:	07 fe       	sbrs	r0, 7
  ca:	fd cf       	rjmp	.-6      	; 0xc6 <TWI_write+0x6>
}
  cc:	08 95       	ret

000000ce <TWI_write_buf>:
	return TWDR;
}



void TWI_write_buf( uint8_t SLA, uint8_t adr, uint8_t len, uint8_t *buf ) {
  ce:	ff 92       	push	r15
  d0:	0f 93       	push	r16
  d2:	1f 93       	push	r17
  d4:	cf 93       	push	r28
  d6:	df 93       	push	r29
  d8:	d8 2f       	mov	r29, r24
  da:	c6 2f       	mov	r28, r22
  dc:	14 2f       	mov	r17, r20
  de:	f2 2e       	mov	r15, r18
  e0:	03 2f       	mov	r16, r19

	TWI_start();
  e2:	e2 df       	rcall	.-60     	; 0xa8 <TWI_start>
	TWI_write(SLA);
  e4:	8d 2f       	mov	r24, r29
  e6:	ec df       	rcall	.-40     	; 0xc0 <TWI_write>
	TWI_write(adr);
  e8:	8c 2f       	mov	r24, r28
  ea:	ea df       	rcall	.-44     	; 0xc0 <TWI_write>
	while (len--) TWI_write(*buf++);
  ec:	11 23       	and	r17, r17
  ee:	31 f0       	breq	.+12     	; 0xfc <TWI_write_buf+0x2e>
  f0:	cf 2d       	mov	r28, r15
  f2:	d0 2f       	mov	r29, r16
  f4:	89 91       	ld	r24, Y+
  f6:	e4 df       	rcall	.-56     	; 0xc0 <TWI_write>
  f8:	11 50       	subi	r17, 0x01	; 1
  fa:	e1 f7       	brne	.-8      	; 0xf4 <TWI_write_buf+0x26>
	TWI_stop();
  fc:	db df       	rcall	.-74     	; 0xb4 <TWI_stop>
}
  fe:	df 91       	pop	r29
 100:	cf 91       	pop	r28
 102:	1f 91       	pop	r17
 104:	0f 91       	pop	r16
 106:	ff 90       	pop	r15
 108:	08 95       	ret

0000010a <_exit>:
 10a:	f8 94       	cli

0000010c <__stop_program>:
 10c:	ff cf       	rjmp	.-2      	; 0x10c <__stop_program>
